{
  "_format": "hh-sol-artifact-1",
  "contractName": "Account",
  "sourceName": "contracts/Account.sol",
  "abi": [
    {
      "anonymous": false,
      "inputs": [
        {
          "indexed": false,
          "internalType": "address",
          "name": "owner",
          "type": "address"
        },
        {
          "indexed": false,
          "internalType": "string",
          "name": "name",
          "type": "string"
        },
        {
          "indexed": false,
          "internalType": "string",
          "name": "avatar",
          "type": "string"
        }
      ],
      "name": "Updated",
      "type": "event"
    },
    {
      "inputs": [
        {
          "internalType": "address",
          "name": "",
          "type": "address"
        }
      ],
      "name": "accounts",
      "outputs": [
        {
          "internalType": "string",
          "name": "name",
          "type": "string"
        },
        {
          "internalType": "string",
          "name": "avatar",
          "type": "string"
        }
      ],
      "stateMutability": "view",
      "type": "function"
    },
    {
      "inputs": [
        {
          "internalType": "string",
          "name": "name",
          "type": "string"
        },
        {
          "internalType": "string",
          "name": "avatar",
          "type": "string"
        }
      ],
      "name": "updateProfile",
      "outputs": [],
      "stateMutability": "nonpayable",
      "type": "function"
    }
  ],
  "bytecode": "0x608060405234801561001057600080fd5b506107d5806100206000396000f3fe608060405234801561001057600080fd5b50600436106100365760003560e01c80635e5c06e21461003b578063c9d3cc6a1461014c575b600080fd5b61006e6004803603602081101561005157600080fd5b503573ffffffffffffffffffffffffffffffffffffffff1661027b565b604051808060200180602001838103835285818151815260200191508051906020019080838360005b838110156100af578181015183820152602001610097565b50505050905090810190601f1680156100dc5780820380516001836020036101000a031916815260200191505b50838103825284518152845160209182019186019080838360005b8381101561010f5781810151838201526020016100f7565b50505050905090810190601f16801561013c5780820380516001836020036101000a031916815260200191505b5094505050505060405180910390f35b6102796004803603604081101561016257600080fd5b81019060208101813564010000000081111561017d57600080fd5b82018360208201111561018f57600080fd5b803590602001918460018302840111640100000000831117156101b157600080fd5b91908080601f016020809104026020016040519081016040528093929190818152602001838380828437600092019190915250929594936020810193503591505064010000000081111561020457600080fd5b82018360208201111561021657600080fd5b8035906020019184600183028401116401000000008311171561023857600080fd5b91908080601f0160208091040260200160405190810160405280939291908181526020018383808284376000920191909152509295506103d5945050505050565b005b6000602081815291815260409081902080548251601f60027fffffffffffffffffffffffffffffffffffffffffffffffffffffffffffffffff6101006001861615020190931692909204918201859004850281018501909352808352909283919083018282801561032d5780601f106103025761010080835404028352916020019161032d565b820191906000526020600020905b81548152906001019060200180831161031057829003601f168201915b505050505090806001018054600181600116156101000203166002900480601f0160208091040260200160405190810160405280929190818152602001828054600181600116156101000203166002900480156103cb5780601f106103a0576101008083540402835291602001916103cb565b820191906000526020600020905b8154815290600101906020018083116103ae57829003601f168201915b5050505050905082565b6103dd6106f2565b33600090815260208181526040918290208251815460026001821615610100027fffffffffffffffffffffffffffffffffffffffffffffffffffffffffffffffff0190911604601f81018490049093028101606090810185529381018381529093919284928491908401828280156104965780601f1061046b57610100808354040283529160200191610496565b820191906000526020600020905b81548152906001019060200180831161047957829003601f168201915b50505050508152602001600182018054600181600116156101000203166002900480601f0160208091040260200160405190810160405280929190818152602001828054600181600116156101000203166002900480156105385780601f1061050d57610100808354040283529160200191610538565b820191906000526020600020905b81548152906001019060200180831161051b57829003601f168201915b505050505081525050905082805190602001208160000151805190602001201415806105765750818051906020012081602001518051906020012014155b156106ed5760408051808201825284815260208082018590523360009081528082529290922081518051929391926105b1928492019061070c565b5060208281015180516105ca926001850192019061070c565b509050507feee8917d51964969088b5c14a664dc2d21084932a50ce74fa8ac013403bc4212338484604051808473ffffffffffffffffffffffffffffffffffffffff1681526020018060200180602001838103835285818151815260200191508051906020019080838360005b8381101561064f578181015183820152602001610637565b50505050905090810190601f16801561067c5780820380516001836020036101000a031916815260200191505b50838103825284518152845160209182019186019080838360005b838110156106af578181015183820152602001610697565b50505050905090810190601f1680156106dc5780820380516001836020036101000a031916815260200191505b509550505050505060405180910390a15b505050565b604051806040016040528060608152602001606081525090565b828054600181600116156101000203166002900490600052602060002090601f016020900481019282601f1061074d57805160ff191683800117855561077a565b8280016001018555821561077a579182015b8281111561077a57825182559160200191906001019061075f565b5061078692915061078a565b5090565b5b80821115610786576000815560010161078b56fea26469706673582212205162a70516fea406a17b66d47a052cfeef9b1fb45f6f50b90cefb2453c321c0a64736f6c63430007030033",
  "linkReferences": {},
  "deployedLinkReferences": {}
}