{
  "_format": "hh-sol-artifact-1",
  "contractName": "Application",
  "sourceName": "contracts/Application.sol",
  "abi": [
    {
      "anonymous": false,
      "inputs": [
        {
          "indexed": false,
          "internalType": "string",
          "name": "name",
          "type": "string"
        },
        {
          "indexed": false,
          "internalType": "string",
          "name": "version",
          "type": "string"
        },
        {
          "indexed": false,
          "internalType": "string",
          "name": "uri",
          "type": "string"
        },
        {
          "indexed": false,
          "internalType": "string",
          "name": "avatar",
          "type": "string"
        }
      ],
      "name": "FirmwareUpdated",
      "type": "event"
    },
    {
      "anonymous": false,
      "inputs": [
        {
          "indexed": false,
          "internalType": "address",
          "name": "account",
          "type": "address"
        }
      ],
      "name": "OperatorGranted",
      "type": "event"
    },
    {
      "anonymous": false,
      "inputs": [
        {
          "indexed": false,
          "internalType": "address",
          "name": "account",
          "type": "address"
        }
      ],
      "name": "OperatorRevoked",
      "type": "event"
    },
    {
      "anonymous": false,
      "inputs": [
        {
          "indexed": true,
          "internalType": "address",
          "name": "previousOwner",
          "type": "address"
        },
        {
          "indexed": true,
          "internalType": "address",
          "name": "newOwner",
          "type": "address"
        }
      ],
      "name": "OwnershipTransferred",
      "type": "event"
    },
    {
      "inputs": [
        {
          "internalType": "string",
          "name": "",
          "type": "string"
        }
      ],
      "name": "firmwares",
      "outputs": [
        {
          "internalType": "string",
          "name": "version",
          "type": "string"
        },
        {
          "internalType": "string",
          "name": "uri",
          "type": "string"
        },
        {
          "internalType": "string",
          "name": "avatar",
          "type": "string"
        }
      ],
      "stateMutability": "view",
      "type": "function"
    },
    {
      "inputs": [
        {
          "internalType": "address",
          "name": "_account",
          "type": "address"
        }
      ],
      "name": "grant",
      "outputs": [],
      "stateMutability": "nonpayable",
      "type": "function"
    },
    {
      "inputs": [
        {
          "internalType": "address",
          "name": "",
          "type": "address"
        }
      ],
      "name": "operators",
      "outputs": [
        {
          "internalType": "bool",
          "name": "",
          "type": "bool"
        }
      ],
      "stateMutability": "view",
      "type": "function"
    },
    {
      "inputs": [],
      "name": "owner",
      "outputs": [
        {
          "internalType": "address",
          "name": "",
          "type": "address"
        }
      ],
      "stateMutability": "view",
      "type": "function"
    },
    {
      "inputs": [],
      "name": "renounceOwnership",
      "outputs": [],
      "stateMutability": "nonpayable",
      "type": "function"
    },
    {
      "inputs": [
        {
          "internalType": "address",
          "name": "_account",
          "type": "address"
        }
      ],
      "name": "revoke",
      "outputs": [],
      "stateMutability": "nonpayable",
      "type": "function"
    },
    {
      "inputs": [
        {
          "internalType": "address",
          "name": "newOwner",
          "type": "address"
        }
      ],
      "name": "transferOwnership",
      "outputs": [],
      "stateMutability": "nonpayable",
      "type": "function"
    },
    {
      "inputs": [
        {
          "internalType": "string",
          "name": "name",
          "type": "string"
        },
        {
          "internalType": "string",
          "name": "version",
          "type": "string"
        },
        {
          "internalType": "string",
          "name": "uri",
          "type": "string"
        },
        {
          "internalType": "string",
          "name": "avatar",
          "type": "string"
        }
      ],
      "name": "updateFirmware",
      "outputs": [],
      "stateMutability": "nonpayable",
      "type": "function"
    }
  ],
  "bytecode": "0x608060405234801561001057600080fd5b50600061001b61006a565b600080546001600160a01b0319166001600160a01b0383169081178255604051929350917f8be0079c531659141344cd1fd0a4f28419497f9722a3daafe3b4186f6b6457e0908290a35061006e565b3390565b6113c68061007d6000396000f3fe608060405234801561001057600080fd5b50600436106100885760003560e01c80638c551af11161005b5780638c551af1146101445780638da5cb5b1461032e578063dfaff65f1461035f578063f2fde38b1461059a57610088565b806313e7c9d81461008d57806370284d19146100d4578063715018a61461010957806374a8f10314610111575b600080fd5b6100c0600480360360208110156100a357600080fd5b503573ffffffffffffffffffffffffffffffffffffffff166105cd565b604080519115158252519081900360200190f35b610107600480360360208110156100ea57600080fd5b503573ffffffffffffffffffffffffffffffffffffffff166105e2565b005b61010761073f565b6101076004803603602081101561012757600080fd5b503573ffffffffffffffffffffffffffffffffffffffff16610856565b6101ea6004803603602081101561015a57600080fd5b81019060208101813564010000000081111561017557600080fd5b82018360208201111561018757600080fd5b803590602001918460018302840111640100000000831117156101a957600080fd5b91908080601f0160208091040260200160405190810160405280939291908181526020018383808284376000920191909152509295506109af945050505050565b60405180806020018060200180602001848103845287818151815260200191508051906020019080838360005b8381101561022f578181015183820152602001610217565b50505050905090810190601f16801561025c5780820380516001836020036101000a031916815260200191505b50848103835286518152865160209182019188019080838360005b8381101561028f578181015183820152602001610277565b50505050905090810190601f1680156102bc5780820380516001836020036101000a031916815260200191505b50848103825285518152855160209182019187019080838360005b838110156102ef5781810151838201526020016102d7565b50505050905090810190601f16801561031c5780820380516001836020036101000a031916815260200191505b50965050505050505060405180910390f35b610336610bc3565b6040805173ffffffffffffffffffffffffffffffffffffffff9092168252519081900360200190f35b6101076004803603608081101561037557600080fd5b81019060208101813564010000000081111561039057600080fd5b8201836020820111156103a257600080fd5b803590602001918460018302840111640100000000831117156103c457600080fd5b91908080601f016020809104026020016040519081016040528093929190818152602001838380828437600092019190915250929594936020810193503591505064010000000081111561041757600080fd5b82018360208201111561042957600080fd5b8035906020019184600183028401116401000000008311171561044b57600080fd5b91908080601f016020809104026020016040519081016040528093929190818152602001838380828437600092019190915250929594936020810193503591505064010000000081111561049e57600080fd5b8201836020820111156104b057600080fd5b803590602001918460018302840111640100000000831117156104d257600080fd5b91908080601f016020809104026020016040519081016040528093929190818152602001838380828437600092019190915250929594936020810193503591505064010000000081111561052557600080fd5b82018360208201111561053757600080fd5b8035906020019184600183028401116401000000008311171561055957600080fd5b91908080601f016020809104026020016040519081016040528093929190818152602001838380828437600092019190915250929550610bdf945050505050565b610107600480360360208110156105b057600080fd5b503573ffffffffffffffffffffffffffffffffffffffff16611132565b60016020526000908152604090205460ff1681565b6105ea6112d3565b73ffffffffffffffffffffffffffffffffffffffff16610608610bc3565b73ffffffffffffffffffffffffffffffffffffffff161461068a57604080517f08c379a000000000000000000000000000000000000000000000000000000000815260206004820181905260248201527f4f776e61626c653a2063616c6c6572206973206e6f7420746865206f776e6572604482015290519081900360640190fd5b73ffffffffffffffffffffffffffffffffffffffff811660009081526001602052604090205460ff1661073c5773ffffffffffffffffffffffffffffffffffffffff811660008181526001602081815260409283902080547fffffffffffffffffffffffffffffffffffffffffffffffffffffffffffffff0016909217909155815192835290517f5b6a420b639feabfb011a07742a6ae14ef72f35d1a330ed65f42216c95bc6c2e9281900390910190a15b50565b6107476112d3565b73ffffffffffffffffffffffffffffffffffffffff16610765610bc3565b73ffffffffffffffffffffffffffffffffffffffff16146107e757604080517f08c379a000000000000000000000000000000000000000000000000000000000815260206004820181905260248201527f4f776e61626c653a2063616c6c6572206973206e6f7420746865206f776e6572604482015290519081900360640190fd5b6000805460405173ffffffffffffffffffffffffffffffffffffffff909116907f8be0079c531659141344cd1fd0a4f28419497f9722a3daafe3b4186f6b6457e0908390a3600080547fffffffffffffffffffffffff0000000000000000000000000000000000000000169055565b61085e6112d3565b73ffffffffffffffffffffffffffffffffffffffff1661087c610bc3565b73ffffffffffffffffffffffffffffffffffffffff16146108fe57604080517f08c379a000000000000000000000000000000000000000000000000000000000815260206004820181905260248201527f4f776e61626c653a2063616c6c6572206973206e6f7420746865206f776e6572604482015290519081900360640190fd5b73ffffffffffffffffffffffffffffffffffffffff811660009081526001602052604090205460ff161561073c5773ffffffffffffffffffffffffffffffffffffffff811660008181526001602090815260409182902080547fffffffffffffffffffffffffffffffffffffffffffffffffffffffffffffff00169055815192835290517fa5f3b7626fd86ff989f1d22cf3d41d74591ea6eb99241079400b0c332a9a8f119281900390910190a150565b805180820160209081018051600280835293830194830194909420939052825460408051601f7fffffffffffffffffffffffffffffffffffffffffffffffffffffffffffffffff610100600186161502019093169490940491820183900483028401830190528083528391830182828015610a6b5780601f10610a4057610100808354040283529160200191610a6b565b820191906000526020600020905b815481529060010190602001808311610a4e57829003601f168201915b505050505090806001018054600181600116156101000203166002900480601f016020809104026020016040519081016040528092919081815260200182805460018160011615610100020316600290048015610b095780601f10610ade57610100808354040283529160200191610b09565b820191906000526020600020905b815481529060010190602001808311610aec57829003601f168201915b50505060028085018054604080516020601f7fffffffffffffffffffffffffffffffffffffffffffffffffffffffffffffffff6101006001871615020190941695909504928301859004850281018501909152818152959695945090925090830182828015610bb95780601f10610b8e57610100808354040283529160200191610bb9565b820191906000526020600020905b815481529060010190602001808311610b9c57829003601f168201915b5050505050905083565b60005473ffffffffffffffffffffffffffffffffffffffff1690565b3360009081526001602052604090205460ff16610c5d57604080517f08c379a000000000000000000000000000000000000000000000000000000000815260206004820152601a60248201527f63616c6c6572206973206e6f7420746865206f70657261746f72000000000000604482015290519081900360640190fd5b60006002856040518082805190602001908083835b60208310610caf57805182527fffffffffffffffffffffffffffffffffffffffffffffffffffffffffffffffe09092019160209182019101610c72565b6001836020036101000a038019825116818451168082178552505050505050905001915050908152602001604051809103902090508380519060200120816000016040518082805460018160011615610100020316600290048015610d4b5780601f10610d29576101008083540402835291820191610d4b565b820191906000526020600020905b815481529060010190602001808311610d37575b50509150506040518091039020141580610dd757508280519060200120816001016040518082805460018160011615610100020316600290048015610dc75780601f10610da5576101008083540402835291820191610dc7565b820191906000526020600020905b815481529060010190602001808311610db3575b5050915050604051809103902014155b80610e5457508180519060200120816002016040518082805460018160011615610100020316600290048015610e445780601f10610e22576101008083540402835291820191610e44565b820191906000526020600020905b815481529060010190602001808311610e30575b5050915050604051809103902014155b1561112b576040518060600160405280858152602001848152602001838152506002866040518082805190602001908083835b60208310610ec457805182527fffffffffffffffffffffffffffffffffffffffffffffffffffffffffffffffe09092019160209182019101610e87565b51815160209384036101000a7fffffffffffffffffffffffffffffffffffffffffffffffffffffffffffffffff0180199092169116179052920194855250604051938490038101909320845180519194610f23945085935001906112d7565b506020828101518051610f3c92600185019201906112d7565b5060408201518051610f589160028401916020909101906112d7565b509050507f3e7cc89e0f3e642577aa6cf551ebdb03ac285acb710d0233a96bd2319b7e759f858585856040518080602001806020018060200180602001858103855289818151815260200191508051906020019080838360005b83811015610fca578181015183820152602001610fb2565b50505050905090810190601f168015610ff75780820380516001836020036101000a031916815260200191505b5085810384528851815288516020918201918a019080838360005b8381101561102a578181015183820152602001611012565b50505050905090810190601f1680156110575780820380516001836020036101000a031916815260200191505b50858103835287518152875160209182019189019080838360005b8381101561108a578181015183820152602001611072565b50505050905090810190601f1680156110b75780820380516001836020036101000a031916815260200191505b50858103825286518152865160209182019188019080838360005b838110156110ea5781810151838201526020016110d2565b50505050905090810190601f1680156111175780820380516001836020036101000a031916815260200191505b509850505050505050505060405180910390a15b5050505050565b61113a6112d3565b73ffffffffffffffffffffffffffffffffffffffff16611158610bc3565b73ffffffffffffffffffffffffffffffffffffffff16146111da57604080517f08c379a000000000000000000000000000000000000000000000000000000000815260206004820181905260248201527f4f776e61626c653a2063616c6c6572206973206e6f7420746865206f776e6572604482015290519081900360640190fd5b73ffffffffffffffffffffffffffffffffffffffff8116611246576040517f08c379a000000000000000000000000000000000000000000000000000000000815260040180806020018281038252602681526020018061136b6026913960400191505060405180910390fd5b6000805460405173ffffffffffffffffffffffffffffffffffffffff808516939216917f8be0079c531659141344cd1fd0a4f28419497f9722a3daafe3b4186f6b6457e091a3600080547fffffffffffffffffffffffff00000000000000000000000000000000000000001673ffffffffffffffffffffffffffffffffffffffff92909216919091179055565b3390565b828054600181600116156101000203166002900490600052602060002090601f016020900481019282601f1061131857805160ff1916838001178555611345565b82800160010185558215611345579182015b8281111561134557825182559160200191906001019061132a565b50611351929150611355565b5090565b5b80821115611351576000815560010161135656fe4f776e61626c653a206e6577206f776e657220697320746865207a65726f2061646472657373a26469706673582212200693f134c2961822c7896f0a041f2d2135db652d194b1db14782443de0fd493464736f6c63430007030033",
  "linkReferences": {},
  "deployedLinkReferences": {}
}