{
  "_format": "hh-sol-artifact-1",
  "contractName": "Bank",
  "sourceName": "contracts/Bank.sol",
  "abi": [
    {
      "anonymous": false,
      "inputs": [
        {
          "indexed": true,
          "internalType": "address",
          "name": "to",
          "type": "address"
        },
        {
          "indexed": false,
          "internalType": "uint256",
          "name": "amount",
          "type": "uint256"
        }
      ],
      "name": "Deposit",
      "type": "event"
    },
    {
      "anonymous": false,
      "inputs": [
        {
          "indexed": false,
          "internalType": "address",
          "name": "account",
          "type": "address"
        }
      ],
      "name": "OperatorGranted",
      "type": "event"
    },
    {
      "anonymous": false,
      "inputs": [
        {
          "indexed": false,
          "internalType": "address",
          "name": "account",
          "type": "address"
        }
      ],
      "name": "OperatorRevoked",
      "type": "event"
    },
    {
      "anonymous": false,
      "inputs": [
        {
          "indexed": true,
          "internalType": "address",
          "name": "previousOwner",
          "type": "address"
        },
        {
          "indexed": true,
          "internalType": "address",
          "name": "newOwner",
          "type": "address"
        }
      ],
      "name": "OwnershipTransferred",
      "type": "event"
    },
    {
      "anonymous": false,
      "inputs": [
        {
          "indexed": true,
          "internalType": "address",
          "name": "from",
          "type": "address"
        },
        {
          "indexed": true,
          "internalType": "address",
          "name": "to",
          "type": "address"
        },
        {
          "indexed": false,
          "internalType": "uint256",
          "name": "amount",
          "type": "uint256"
        }
      ],
      "name": "Paid",
      "type": "event"
    },
    {
      "anonymous": false,
      "inputs": [
        {
          "indexed": true,
          "internalType": "address",
          "name": "from",
          "type": "address"
        },
        {
          "indexed": true,
          "internalType": "address",
          "name": "to",
          "type": "address"
        },
        {
          "indexed": false,
          "internalType": "uint256",
          "name": "amount",
          "type": "uint256"
        }
      ],
      "name": "Withdraw",
      "type": "event"
    },
    {
      "inputs": [
        {
          "internalType": "address",
          "name": "",
          "type": "address"
        }
      ],
      "name": "balanceOf",
      "outputs": [
        {
          "internalType": "uint256",
          "name": "",
          "type": "uint256"
        }
      ],
      "stateMutability": "view",
      "type": "function"
    },
    {
      "inputs": [
        {
          "internalType": "address",
          "name": "to",
          "type": "address"
        }
      ],
      "name": "deposit",
      "outputs": [],
      "stateMutability": "payable",
      "type": "function"
    },
    {
      "inputs": [
        {
          "internalType": "address",
          "name": "_account",
          "type": "address"
        }
      ],
      "name": "grant",
      "outputs": [],
      "stateMutability": "nonpayable",
      "type": "function"
    },
    {
      "inputs": [
        {
          "internalType": "address",
          "name": "",
          "type": "address"
        }
      ],
      "name": "operators",
      "outputs": [
        {
          "internalType": "bool",
          "name": "",
          "type": "bool"
        }
      ],
      "stateMutability": "view",
      "type": "function"
    },
    {
      "inputs": [],
      "name": "owner",
      "outputs": [
        {
          "internalType": "address",
          "name": "",
          "type": "address"
        }
      ],
      "stateMutability": "view",
      "type": "function"
    },
    {
      "inputs": [
        {
          "internalType": "address",
          "name": "from",
          "type": "address"
        },
        {
          "internalType": "address payable",
          "name": "to",
          "type": "address"
        },
        {
          "internalType": "uint256",
          "name": "amount",
          "type": "uint256"
        }
      ],
      "name": "pay",
      "outputs": [],
      "stateMutability": "nonpayable",
      "type": "function"
    },
    {
      "inputs": [],
      "name": "renounceOwnership",
      "outputs": [],
      "stateMutability": "nonpayable",
      "type": "function"
    },
    {
      "inputs": [
        {
          "internalType": "address",
          "name": "_account",
          "type": "address"
        }
      ],
      "name": "revoke",
      "outputs": [],
      "stateMutability": "nonpayable",
      "type": "function"
    },
    {
      "inputs": [
        {
          "internalType": "address",
          "name": "newOwner",
          "type": "address"
        }
      ],
      "name": "transferOwnership",
      "outputs": [],
      "stateMutability": "nonpayable",
      "type": "function"
    },
    {
      "inputs": [
        {
          "internalType": "address payable",
          "name": "to",
          "type": "address"
        },
        {
          "internalType": "uint256",
          "name": "amount",
          "type": "uint256"
        }
      ],
      "name": "withdraw",
      "outputs": [],
      "stateMutability": "nonpayable",
      "type": "function"
    }
  ],
  "bytecode": "0x608060405234801561001057600080fd5b50600061001b61006a565b600080546001600160a01b0319166001600160a01b0383169081178255604051929350917f8be0079c531659141344cd1fd0a4f28419497f9722a3daafe3b4186f6b6457e0908290a35061006e565b3390565b610eec8061007d6000396000f3fe6080604052600436106100b15760003560e01c80638da5cb5b11610069578063f2fde38b1161004e578063f2fde38b14610281578063f340fa01146102c1578063f3fef3a3146102f4576100b1565b80638da5cb5b146101f3578063b3d7618814610231576100b1565b806370a082311161009a57806370a082311461014c578063715018a61461019e57806374a8f103146101b3576100b1565b806313e7c9d8146100b657806370284d191461010a575b600080fd5b3480156100c257600080fd5b506100f6600480360360208110156100d957600080fd5b503573ffffffffffffffffffffffffffffffffffffffff1661033a565b604080519115158252519081900360200190f35b34801561011657600080fd5b5061014a6004803603602081101561012d57600080fd5b503573ffffffffffffffffffffffffffffffffffffffff1661034f565b005b34801561015857600080fd5b5061018c6004803603602081101561016f57600080fd5b503573ffffffffffffffffffffffffffffffffffffffff16610492565b60408051918252519081900360200190f35b3480156101aa57600080fd5b5061014a6104a4565b3480156101bf57600080fd5b5061014a600480360360208110156101d657600080fd5b503573ffffffffffffffffffffffffffffffffffffffff166105a1565b3480156101ff57600080fd5b506102086106e0565b6040805173ffffffffffffffffffffffffffffffffffffffff9092168252519081900360200190f35b34801561023d57600080fd5b5061014a6004803603606081101561025457600080fd5b5073ffffffffffffffffffffffffffffffffffffffff8135811691602081013590911690604001356106fc565b34801561028d57600080fd5b5061014a600480360360208110156102a457600080fd5b503573ffffffffffffffffffffffffffffffffffffffff16610935565b61014a600480360360208110156102d757600080fd5b503573ffffffffffffffffffffffffffffffffffffffff16610aa2565b34801561030057600080fd5b5061014a6004803603604081101561031757600080fd5b5073ffffffffffffffffffffffffffffffffffffffff8135169060200135610bf1565b60016020526000908152604090205460ff1681565b610357610d94565b73ffffffffffffffffffffffffffffffffffffffff166103756106e0565b73ffffffffffffffffffffffffffffffffffffffff16146103dd576040805162461bcd60e51b815260206004820181905260248201527f4f776e61626c653a2063616c6c6572206973206e6f7420746865206f776e6572604482015290519081900360640190fd5b73ffffffffffffffffffffffffffffffffffffffff811660009081526001602052604090205460ff1661048f5773ffffffffffffffffffffffffffffffffffffffff811660008181526001602081815260409283902080547fffffffffffffffffffffffffffffffffffffffffffffffffffffffffffffff0016909217909155815192835290517f5b6a420b639feabfb011a07742a6ae14ef72f35d1a330ed65f42216c95bc6c2e9281900390910190a15b50565b60026020526000908152604090205481565b6104ac610d94565b73ffffffffffffffffffffffffffffffffffffffff166104ca6106e0565b73ffffffffffffffffffffffffffffffffffffffff1614610532576040805162461bcd60e51b815260206004820181905260248201527f4f776e61626c653a2063616c6c6572206973206e6f7420746865206f776e6572604482015290519081900360640190fd5b6000805460405173ffffffffffffffffffffffffffffffffffffffff909116907f8be0079c531659141344cd1fd0a4f28419497f9722a3daafe3b4186f6b6457e0908390a3600080547fffffffffffffffffffffffff0000000000000000000000000000000000000000169055565b6105a9610d94565b73ffffffffffffffffffffffffffffffffffffffff166105c76106e0565b73ffffffffffffffffffffffffffffffffffffffff161461062f576040805162461bcd60e51b815260206004820181905260248201527f4f776e61626c653a2063616c6c6572206973206e6f7420746865206f776e6572604482015290519081900360640190fd5b73ffffffffffffffffffffffffffffffffffffffff811660009081526001602052604090205460ff161561048f5773ffffffffffffffffffffffffffffffffffffffff811660008181526001602090815260409182902080547fffffffffffffffffffffffffffffffffffffffffffffffffffffffffffffff00169055815192835290517fa5f3b7626fd86ff989f1d22cf3d41d74591ea6eb99241079400b0c332a9a8f119281900390910190a150565b60005473ffffffffffffffffffffffffffffffffffffffff1690565b3360009081526001602052604090205460ff16610760576040805162461bcd60e51b815260206004820152601a60248201527f63616c6c6572206973206e6f7420746865206f70657261746f72000000000000604482015290519081900360640190fd5b600081116107b5576040805162461bcd60e51b815260206004820152600e60248201527f696e76616c696420616d6f756e74000000000000000000000000000000000000604482015290519081900360640190fd5b303181111561080b576040805162461bcd60e51b815260206004820152601b60248201527f616d6f756e7420657863656564732062616e6b2062616c616e63650000000000604482015290519081900360640190fd5b604080518082018252601681527f616d6f756e7420657863656564732062616c616e63650000000000000000000060208083019190915273ffffffffffffffffffffffffffffffffffffffff8616600090815260029091529190912054610873918390610d98565b73ffffffffffffffffffffffffffffffffffffffff8085166000908152600260205260408082209390935591519084169183156108fc02918491818181858888f193505050501580156108ca573d6000803e3d6000fd5b508173ffffffffffffffffffffffffffffffffffffffff168373ffffffffffffffffffffffffffffffffffffffff167f9def4e2802183d68ce90a6a226a2962b59298616c27165f12c4fbc5c84cdd778836040518082815260200191505060405180910390a3505050565b61093d610d94565b73ffffffffffffffffffffffffffffffffffffffff1661095b6106e0565b73ffffffffffffffffffffffffffffffffffffffff16146109c3576040805162461bcd60e51b815260206004820181905260248201527f4f776e61626c653a2063616c6c6572206973206e6f7420746865206f776e6572604482015290519081900360640190fd5b73ffffffffffffffffffffffffffffffffffffffff8116610a155760405162461bcd60e51b8152600401808060200182810382526026815260200180610e916026913960400191505060405180910390fd5b6000805460405173ffffffffffffffffffffffffffffffffffffffff808516939216917f8be0079c531659141344cd1fd0a4f28419497f9722a3daafe3b4186f6b6457e091a3600080547fffffffffffffffffffffffff00000000000000000000000000000000000000001673ffffffffffffffffffffffffffffffffffffffff92909216919091179055565b60003411610af7576040805162461bcd60e51b815260206004820152600d60248201527f696e76616c69642076616c756500000000000000000000000000000000000000604482015290519081900360640190fd5b73ffffffffffffffffffffffffffffffffffffffff8116610b5f576040805162461bcd60e51b815260206004820152600a60248201527f696e76616c696420746f00000000000000000000000000000000000000000000604482015290519081900360640190fd5b73ffffffffffffffffffffffffffffffffffffffff8116600090815260026020526040902054610b8f9034610e2f565b73ffffffffffffffffffffffffffffffffffffffff8216600081815260026020908152604091829020939093558051348152905191927fe1fffcc4923d04b559f4d29a8bfc6cda04eb5b0d3c460751c2402c5c5cc9109c92918290030190a250565b60008111610c46576040805162461bcd60e51b815260206004820152600e60248201527f696e76616c696420616d6f756e74000000000000000000000000000000000000604482015290519081900360640190fd5b3031811115610c9c576040805162461bcd60e51b815260206004820152601b60248201527f616d6f756e7420657863656564732062616e6b2062616c616e63650000000000604482015290519081900360640190fd5b604080518082018252601f81527f776974686472617720616d6f756e7420657863656564732062616c616e63650060208083019190915233600090815260029091529190912054610cee918390610d98565b3360009081526002602052604080822092909255905173ffffffffffffffffffffffffffffffffffffffff84169183156108fc02918491818181858888f19350505050158015610d42573d6000803e3d6000fd5b5060408051828152905173ffffffffffffffffffffffffffffffffffffffff84169133917f9b1bfa7fa9ee420a16e124f794c35ac9f90472acc99140eb2f6447c714cad8eb9181900360200190a35050565b3390565b60008184841115610e275760405162461bcd60e51b81526004018080602001828103825283818151815260200191508051906020019080838360005b83811015610dec578181015183820152602001610dd4565b50505050905090810190601f168015610e195780820380516001836020036101000a031916815260200191505b509250505060405180910390fd5b505050900390565b600082820183811015610e89576040805162461bcd60e51b815260206004820152601b60248201527f536166654d6174683a206164646974696f6e206f766572666c6f770000000000604482015290519081900360640190fd5b939250505056fe4f776e61626c653a206e6577206f776e657220697320746865207a65726f2061646472657373a264697066735822122074312751b547693884eb3a4af7ecb402b7970e5fe423a861161aa90d244bc37d64736f6c63430007030033",
  "linkReferences": {},
  "deployedLinkReferences": {}
}