{
  "_format": "hh-sol-artifact-1",
  "contractName": "Pebble",
  "sourceName": "contracts/Pebble.sol",
  "abi": [
    {
      "inputs": [
        {
          "internalType": "address",
          "name": "_bank",
          "type": "address"
        },
        {
          "internalType": "address",
          "name": "_registration",
          "type": "address"
        }
      ],
      "stateMutability": "nonpayable",
      "type": "constructor"
    },
    {
      "anonymous": false,
      "inputs": [
        {
          "indexed": false,
          "internalType": "string",
          "name": "imei",
          "type": "string"
        },
        {
          "indexed": false,
          "internalType": "address",
          "name": "owner",
          "type": "address"
        },
        {
          "indexed": false,
          "internalType": "address",
          "name": "device",
          "type": "address"
        },
        {
          "indexed": false,
          "internalType": "uint32",
          "name": "channel",
          "type": "uint32"
        }
      ],
      "name": "Confirm",
      "type": "event"
    },
    {
      "anonymous": false,
      "inputs": [
        {
          "indexed": false,
          "internalType": "string",
          "name": "imei",
          "type": "string"
        },
        {
          "indexed": false,
          "internalType": "address",
          "name": "operator",
          "type": "address"
        },
        {
          "indexed": false,
          "internalType": "uint32",
          "name": "_type",
          "type": "uint32"
        },
        {
          "indexed": false,
          "internalType": "bytes",
          "name": "data",
          "type": "bytes"
        },
        {
          "indexed": false,
          "internalType": "uint32",
          "name": "timestamp",
          "type": "uint32"
        },
        {
          "indexed": false,
          "internalType": "bytes",
          "name": "signature",
          "type": "bytes"
        },
        {
          "indexed": false,
          "internalType": "uint256",
          "name": "gas",
          "type": "uint256"
        }
      ],
      "name": "Data",
      "type": "event"
    },
    {
      "anonymous": false,
      "inputs": [
        {
          "indexed": false,
          "internalType": "string",
          "name": "imei",
          "type": "string"
        },
        {
          "indexed": false,
          "internalType": "string",
          "name": "app",
          "type": "string"
        }
      ],
      "name": "Firmware",
      "type": "event"
    },
    {
      "anonymous": false,
      "inputs": [
        {
          "indexed": false,
          "internalType": "address",
          "name": "account",
          "type": "address"
        }
      ],
      "name": "OperatorGranted",
      "type": "event"
    },
    {
      "anonymous": false,
      "inputs": [
        {
          "indexed": false,
          "internalType": "address",
          "name": "account",
          "type": "address"
        }
      ],
      "name": "OperatorRevoked",
      "type": "event"
    },
    {
      "anonymous": false,
      "inputs": [
        {
          "indexed": true,
          "internalType": "address",
          "name": "previousOwner",
          "type": "address"
        },
        {
          "indexed": true,
          "internalType": "address",
          "name": "newOwner",
          "type": "address"
        }
      ],
      "name": "OwnershipTransferred",
      "type": "event"
    },
    {
      "anonymous": false,
      "inputs": [
        {
          "indexed": false,
          "internalType": "string",
          "name": "imei",
          "type": "string"
        },
        {
          "indexed": false,
          "internalType": "address",
          "name": "owner",
          "type": "address"
        },
        {
          "indexed": false,
          "internalType": "address",
          "name": "device",
          "type": "address"
        },
        {
          "indexed": false,
          "internalType": "string",
          "name": "name",
          "type": "string"
        },
        {
          "indexed": false,
          "internalType": "string",
          "name": "avatar",
          "type": "string"
        }
      ],
      "name": "Proposal",
      "type": "event"
    },
    {
      "anonymous": false,
      "inputs": [
        {
          "indexed": false,
          "internalType": "string",
          "name": "imei",
          "type": "string"
        },
        {
          "indexed": false,
          "internalType": "address",
          "name": "owner",
          "type": "address"
        }
      ],
      "name": "Remove",
      "type": "event"
    },
    {
      "inputs": [
        {
          "internalType": "string",
          "name": "imei",
          "type": "string"
        },
        {
          "internalType": "uint32",
          "name": "_type",
          "type": "uint32"
        },
        {
          "internalType": "bytes",
          "name": "data",
          "type": "bytes"
        },
        {
          "internalType": "uint32",
          "name": "timestamp",
          "type": "uint32"
        },
        {
          "internalType": "bytes",
          "name": "signature",
          "type": "bytes"
        },
        {
          "internalType": "uint256",
          "name": "gas",
          "type": "uint256"
        }
      ],
      "name": "addData",
      "outputs": [],
      "stateMutability": "nonpayable",
      "type": "function"
    },
    {
      "inputs": [],
      "name": "bank",
      "outputs": [
        {
          "internalType": "contract IBank",
          "name": "",
          "type": "address"
        }
      ],
      "stateMutability": "view",
      "type": "function"
    },
    {
      "inputs": [
        {
          "internalType": "string",
          "name": "imei",
          "type": "string"
        },
        {
          "internalType": "address",
          "name": "_owner",
          "type": "address"
        },
        {
          "internalType": "uint32",
          "name": "timestamp",
          "type": "uint32"
        },
        {
          "internalType": "bytes",
          "name": "signature",
          "type": "bytes"
        },
        {
          "internalType": "uint256",
          "name": "gas",
          "type": "uint256"
        },
        {
          "internalType": "uint32",
          "name": "channel",
          "type": "uint32"
        }
      ],
      "name": "confirm",
      "outputs": [],
      "stateMutability": "nonpayable",
      "type": "function"
    },
    {
      "inputs": [
        {
          "internalType": "address",
          "name": "_account",
          "type": "address"
        }
      ],
      "name": "grant",
      "outputs": [],
      "stateMutability": "nonpayable",
      "type": "function"
    },
    {
      "inputs": [
        {
          "internalType": "address",
          "name": "",
          "type": "address"
        }
      ],
      "name": "operators",
      "outputs": [
        {
          "internalType": "bool",
          "name": "",
          "type": "bool"
        }
      ],
      "stateMutability": "view",
      "type": "function"
    },
    {
      "inputs": [],
      "name": "owner",
      "outputs": [
        {
          "internalType": "address",
          "name": "",
          "type": "address"
        }
      ],
      "stateMutability": "view",
      "type": "function"
    },
    {
      "inputs": [
        {
          "internalType": "string",
          "name": "imei",
          "type": "string"
        },
        {
          "internalType": "string",
          "name": "name",
          "type": "string"
        },
        {
          "internalType": "string",
          "name": "avatar",
          "type": "string"
        }
      ],
      "name": "proposal",
      "outputs": [],
      "stateMutability": "payable",
      "type": "function"
    },
    {
      "inputs": [],
      "name": "registration",
      "outputs": [
        {
          "internalType": "contract IRegistration",
          "name": "",
          "type": "address"
        }
      ],
      "stateMutability": "view",
      "type": "function"
    },
    {
      "inputs": [
        {
          "internalType": "string",
          "name": "imei",
          "type": "string"
        }
      ],
      "name": "remove",
      "outputs": [],
      "stateMutability": "nonpayable",
      "type": "function"
    },
    {
      "inputs": [],
      "name": "renounceOwnership",
      "outputs": [],
      "stateMutability": "nonpayable",
      "type": "function"
    },
    {
      "inputs": [
        {
          "internalType": "address",
          "name": "_account",
          "type": "address"
        }
      ],
      "name": "revoke",
      "outputs": [],
      "stateMutability": "nonpayable",
      "type": "function"
    },
    {
      "inputs": [
        {
          "internalType": "string",
          "name": "imei",
          "type": "string"
        },
        {
          "internalType": "string",
          "name": "app",
          "type": "string"
        }
      ],
      "name": "setFirmware",
      "outputs": [],
      "stateMutability": "nonpayable",
      "type": "function"
    },
    {
      "inputs": [
        {
          "internalType": "address",
          "name": "_token",
          "type": "address"
        }
      ],
      "name": "setToken",
      "outputs": [],
      "stateMutability": "nonpayable",
      "type": "function"
    },
    {
      "inputs": [
        {
          "internalType": "string",
          "name": "",
          "type": "string"
        }
      ],
      "name": "timestamps",
      "outputs": [
        {
          "internalType": "uint32",
          "name": "",
          "type": "uint32"
        }
      ],
      "stateMutability": "view",
      "type": "function"
    },
    {
      "inputs": [],
      "name": "token",
      "outputs": [
        {
          "internalType": "address",
          "name": "",
          "type": "address"
        }
      ],
      "stateMutability": "view",
      "type": "function"
    },
    {
      "inputs": [
        {
          "internalType": "address",
          "name": "newOwner",
          "type": "address"
        }
      ],
      "name": "transferOwnership",
      "outputs": [],
      "stateMutability": "nonpayable",
      "type": "function"
    }
  ],
  "bytecode": "0x608060405234801561001057600080fd5b5060405162002a7f38038062002a7f8339818101604052604081101561003557600080fd5b50805160209091015160006100486100c3565b600080546001600160a01b0319166001600160a01b0383169081178255604051929350917f8be0079c531659141344cd1fd0a4f28419497f9722a3daafe3b4186f6b6457e0908290a350600280546001600160a01b039384166001600160a01b031991821617909155600380549290931691161790556100c7565b3390565b6129a880620000d76000396000f3fe6080604052600436106100f35760003560e01c806370284d191161008a57806380599e4b1161005957806380599e4b1461092e5780638da5cb5b146109e1578063f2fde38b146109f6578063fc0c546a14610a29576100f3565b806370284d191461089e578063715018a6146108d157806374a8f103146108e657806376cdb03b14610919576100f3565b8063443bd1d0116100c6578063443bd1d0146103a05780634edefa13146103d15780635cc8edda1461058557806363a2b7cb14610764576100f3565b806313e7c9d8146100f8578063144fa6d71461013f57806315f9b874146101745780632409556e14610240575b600080fd5b34801561010457600080fd5b5061012b6004803603602081101561011b57600080fd5b50356001600160a01b0316610a3e565b604080519115158252519081900360200190f35b34801561014b57600080fd5b506101726004803603602081101561016257600080fd5b50356001600160a01b0316610a53565b005b34801561018057600080fd5b506102276004803603602081101561019757600080fd5b8101906020810181356401000000008111156101b257600080fd5b8201836020820111156101c457600080fd5b803590602001918460018302840111640100000000831117156101e657600080fd5b91908080601f016020809104026020016040519081016040528093929190818152602001838380828437600092019190915250929550610b01945050505050565b6040805163ffffffff9092168252519081900360200190f35b34801561024c57600080fd5b50610172600480360360c081101561026357600080fd5b81019060208101813564010000000081111561027e57600080fd5b82018360208201111561029057600080fd5b803590602001918460018302840111640100000000831117156102b257600080fd5b91908080601f01602080910402602001604051908101604052809392919081815260200183838082843760009201919091525092956001600160a01b038535169563ffffffff6020870135169591945092506060810191506040013564010000000081111561032057600080fd5b82018360208201111561033257600080fd5b8035906020019184600183028401116401000000008311171561035457600080fd5b91908080601f016020809104026020016040519081016040528093929190818152602001838380828437600092019190915250929550508235935050506020013563ffffffff16610b24565b3480156103ac57600080fd5b506103b5611139565b604080516001600160a01b039092168252519081900360200190f35b610172600480360360608110156103e757600080fd5b81019060208101813564010000000081111561040257600080fd5b82018360208201111561041457600080fd5b8035906020019184600183028401116401000000008311171561043657600080fd5b91908080601f016020809104026020016040519081016040528093929190818152602001838380828437600092019190915250929594936020810193503591505064010000000081111561048957600080fd5b82018360208201111561049b57600080fd5b803590602001918460018302840111640100000000831117156104bd57600080fd5b91908080601f016020809104026020016040519081016040528093929190818152602001838380828437600092019190915250929594936020810193503591505064010000000081111561051057600080fd5b82018360208201111561052257600080fd5b8035906020019184600183028401116401000000008311171561054457600080fd5b91908080601f016020809104026020016040519081016040528093929190818152602001838380828437600092019190915250929550611148945050505050565b34801561059157600080fd5b50610172600480360360c08110156105a857600080fd5b8101906020810181356401000000008111156105c357600080fd5b8201836020820111156105d557600080fd5b803590602001918460018302840111640100000000831117156105f757600080fd5b91908080601f016020809104026020016040519081016040528093929190818152602001838380828437600092019190915250929563ffffffff85351695909490935060408101925060200135905064010000000081111561065857600080fd5b82018360208201111561066a57600080fd5b8035906020019184600183028401116401000000008311171561068c57600080fd5b91908080601f016020809104026020016040519081016040528093929190818152602001838380828437600092019190915250929563ffffffff8535169590949093506040810192506020013590506401000000008111156106ed57600080fd5b8201836020820111156106ff57600080fd5b8035906020019184600183028401116401000000008311171561072157600080fd5b91908080601f0160208091040260200160405190810160405280939291908181526020018383808284376000920191909152509295505091359250611563915050565b34801561077057600080fd5b506101726004803603604081101561078757600080fd5b8101906020810181356401000000008111156107a257600080fd5b8201836020820111156107b457600080fd5b803590602001918460018302840111640100000000831117156107d657600080fd5b91908080601f016020809104026020016040519081016040528093929190818152602001838380828437600092019190915250929594936020810193503591505064010000000081111561082957600080fd5b82018360208201111561083b57600080fd5b8035906020019184600183028401116401000000008311171561085d57600080fd5b91908080601f016020809104026020016040519081016040528093929190818152602001838380828437600092019190915250929550611bcb945050505050565b3480156108aa57600080fd5b50610172600480360360208110156108c157600080fd5b50356001600160a01b0316611e1e565b3480156108dd57600080fd5b50610172611f2d565b3480156108f257600080fd5b506101726004803603602081101561090957600080fd5b50356001600160a01b0316612003565b34801561092557600080fd5b506103b561210e565b34801561093a57600080fd5b506101726004803603602081101561095157600080fd5b81019060208101813564010000000081111561096c57600080fd5b82018360208201111561097e57600080fd5b803590602001918460018302840111640100000000831117156109a057600080fd5b91908080601f01602080910402602001604051908101604052809392919081815260200183838082843760009201919091525092955061211d945050505050565b3480156109ed57600080fd5b506103b56123ff565b348015610a0257600080fd5b5061017260048036036020811015610a1957600080fd5b50356001600160a01b031661240e565b348015610a3557600080fd5b506103b561253a565b60016020526000908152604090205460ff1681565b610a5b612549565b6001600160a01b0316610a6c6123ff565b6001600160a01b031614610ac7576040805162461bcd60e51b815260206004820181905260248201527f4f776e61626c653a2063616c6c6572206973206e6f7420746865206f776e6572604482015290519081900360640190fd5b600480547fffffffffffffffffffffffff0000000000000000000000000000000000000000166001600160a01b0392909216919091179055565b805160208183018101805160058252928201919093012091525463ffffffff1681565b3360009081526001602052604090205460ff16610b88576040805162461bcd60e51b815260206004820152601a60248201527f63616c6c6572206973206e6f7420746865206f70657261746f72000000000000604482015290519081900360640190fd5b6003546040517f82b7b50000000000000000000000000000000000000000000000000000000000815260206004820181815289516024840152895160009485946001600160a01b03909116936382b7b500938d9390928392604490910191908501908083838b5b83811015610c07578181015183820152602001610bef565b50505050905090810190601f168015610c345780820380516001836020036101000a031916815260200191505b5092505050604080518083038186803b158015610c5057600080fd5b505afa158015610c64573d6000803e3d6000fd5b505050506040513d6040811015610c7a57600080fd5b50805160209091015190925090506001600160a01b038216610ce3576040805162461bcd60e51b815260206004820152600c60248201527f696e76616c696420696d65690000000000000000000000000000000000000000604482015290519081900360640190fd5b866001600160a01b0316816001600160a01b03161415610d4a576040805162461bcd60e51b815260206004820152601160248201527f6f776e6572206e6f74206368616e676564000000000000000000000000000000604482015290519081900360640190fd5b610d54888761254d565b610da5576040805162461bcd60e51b815260206004820152601160248201527f696e76616c69642074696d657374616d70000000000000000000000000000000604482015290519081900360640190fd5b816001600160a01b0316610e9a6002898960405160200180836001600160a01b031660601b81526014018263ffffffff1660e01b8152600401925050506040516020818303038152906040526040518082805190602001908083835b60208310610e205780518252601f199092019160209182019101610e01565b51815160209384036101000a7fffffffffffffffffffffffffffffffffffffffffffffffffffffffffffffffff01801990921691161790526040519190930194509192505080830381855afa158015610e7d573d6000803e3d6000fd5b5050506040513d6020811015610e9257600080fd5b5051876126a9565b6001600160a01b031614610ef5576040805162461bcd60e51b815260206004820152601160248201527f696e76616c6964207369676e6174757265000000000000000000000000000000604482015290519081900360640190fd5b600354604080517f092b25e90000000000000000000000000000000000000000000000000000000081526001600160a01b038a81166024830152600482019283528b5160448301528b5193169263092b25e9928c928c92829160640190602086019080838360005b83811015610f75578181015183820152602001610f5d565b50505050905090810190601f168015610fa25780820380516001836020036101000a031916815260200191505b509350505050600060405180830381600087803b158015610fc257600080fd5b505af1158015610fd6573d6000803e3d6000fd5b5050600254604080517fb3d761880000000000000000000000000000000000000000000000000000000081526001600160a01b038c81166004830152336024830152604482018a9052915191909216935063b3d761889250606480830192600092919082900301818387803b15801561104e57600080fd5b505af1158015611062573d6000803e3d6000fd5b505050507fd5b2cf831feccbfa01ac1987c17d405937ce2aedcb9a9c9efc88853b2a1e2c32888884866040518080602001856001600160a01b03168152602001846001600160a01b031681526020018363ffffffff168152602001828103825286818151815260200191508051906020019080838360005b838110156110f25781810151838201526020016110da565b50505050905090810190601f16801561111f5780820380516001836020036101000a031916815260200191505b509550505050505060405180910390a15050505050505050565b6003546001600160a01b031681565b6003546040517f82b7b50000000000000000000000000000000000000000000000000000000000815260206004820181815286516024840152865160009485946001600160a01b03909116936382b7b500938a9390928392604490910191908501908083838b5b838110156111c75781810151838201526020016111af565b50505050905090810190601f1680156111f45780820380516001836020036101000a031916815260200191505b5092505050604080518083038186803b15801561121057600080fd5b505afa158015611224573d6000803e3d6000fd5b505050506040513d604081101561123a57600080fd5b50805160209091015190925090506001600160a01b0382166112a3576040805162461bcd60e51b815260206004820152600c60248201527f696e76616c696420696d65690000000000000000000000000000000000000000604482015290519081900360640190fd5b6001600160a01b038116156112ff576040805162461bcd60e51b815260206004820152601060248201527f64657669636520686173206f776e657200000000000000000000000000000000604482015290519081900360640190fd5b60003411611354576040805162461bcd60e51b815260206004820152600d60248201527f696e76616c69642076616c756500000000000000000000000000000000000000604482015290519081900360640190fd5b600254604080517ff340fa0100000000000000000000000000000000000000000000000000000000815233600482015290516001600160a01b039092169163f340fa01913491602480830192600092919082900301818588803b1580156113ba57600080fd5b505af11580156113ce573d6000803e3d6000fd5b50505050507f9ffdf0136249d99680088653555755221714868b4f7ca1ff7d8523e3bef1dc4a85338487876040518080602001866001600160a01b03168152602001856001600160a01b031681526020018060200180602001848103845289818151815260200191508051906020019080838360005b8381101561145c578181015183820152602001611444565b50505050905090810190601f1680156114895780820380516001836020036101000a031916815260200191505b50848103835286518152865160209182019188019080838360005b838110156114bc5781810151838201526020016114a4565b50505050905090810190601f1680156114e95780820380516001836020036101000a031916815260200191505b50848103825285518152855160209182019187019080838360005b8381101561151c578181015183820152602001611504565b50505050905090810190601f1680156115495780820380516001836020036101000a031916815260200191505b509850505050505050505060405180910390a15050505050565b3360009081526001602052604090205460ff166115c7576040805162461bcd60e51b815260206004820152601a60248201527f63616c6c6572206973206e6f7420746865206f70657261746f72000000000000604482015290519081900360640190fd5b6003546040517f82b7b50000000000000000000000000000000000000000000000000000000000815260206004820181815289516024840152895160009485946001600160a01b03909116936382b7b500938d9390928392604490910191908501908083838b5b8381101561164657818101518382015260200161162e565b50505050905090810190601f1680156116735780820380516001836020036101000a031916815260200191505b5092505050604080518083038186803b15801561168f57600080fd5b505afa1580156116a3573d6000803e3d6000fd5b505050506040513d60408110156116b957600080fd5b50805160209091015190925090506001600160a01b038216611722576040805162461bcd60e51b815260206004820152600c60248201527f696e76616c696420696d65690000000000000000000000000000000000000000604482015290519081900360640190fd5b6001600160a01b03811661177d576040805162461bcd60e51b815260206004820152601460248201527f64657669636520686173206e6f74206f776e6572000000000000000000000000604482015290519081900360640190fd5b611787888661254d565b6117d8576040805162461bcd60e51b815260206004820152601160248201527f696e76616c69642074696d657374616d70000000000000000000000000000000604482015290519081900360640190fd5b816001600160a01b03166119196002898989604051602001808463ffffffff1660e01b815260040183805190602001908083835b6020831061182b5780518252601f19909201916020918201910161180c565b6001836020036101000a0380198251168184511680821785525050505050509050018263ffffffff1660e01b815260040193505050506040516020818303038152906040526040518082805190602001908083835b6020831061189f5780518252601f199092019160209182019101611880565b51815160209384036101000a7fffffffffffffffffffffffffffffffffffffffffffffffffffffffffffffffff01801990921691161790526040519190930194509192505080830381855afa1580156118fc573d6000803e3d6000fd5b5050506040513d602081101561191157600080fd5b5051866126a9565b6001600160a01b031614611974576040805162461bcd60e51b815260206004820152601160248201527f696e76616c6964207369676e6174757265000000000000000000000000000000604482015290519081900360640190fd5b600254604080517fb3d761880000000000000000000000000000000000000000000000000000000081526001600160a01b038481166004830152336024830152604482018790529151919092169163b3d7618891606480830192600092919082900301818387803b1580156119e857600080fd5b505af11580156119fc573d6000803e3d6000fd5b50506004546001600160a01b0316159150611a25905057611a2533670de0b6b3a7640000612764565b7f46a358402c825d88ee06e8f57c5b20a6fadef12a3f1b9dd15f286d2b06e2d8f0883389898989896040518080602001886001600160a01b031681526020018763ffffffff168152602001806020018663ffffffff1681526020018060200185815260200184810384528b818151815260200191508051906020019080838360005b83811015611abf578181015183820152602001611aa7565b50505050905090810190601f168015611aec5780820380516001836020036101000a031916815260200191505b5084810383528851815288516020918201918a019080838360005b83811015611b1f578181015183820152602001611b07565b50505050905090810190601f168015611b4c5780820380516001836020036101000a031916815260200191505b50848103825286518152865160209182019188019080838360005b83811015611b7f578181015183820152602001611b67565b50505050905090810190601f168015611bac5780820380516001836020036101000a031916815260200191505b509a505050505050505050505060405180910390a15050505050505050565b6003546040517f82b7b5000000000000000000000000000000000000000000000000000000000081526020600482018181528551602484015285516000946001600160a01b0316936382b7b500938893928392604401918501908083838b5b83811015611c42578181015183820152602001611c2a565b50505050905090810190601f168015611c6f5780820380516001836020036101000a031916815260200191505b5092505050604080518083038186803b158015611c8b57600080fd5b505afa158015611c9f573d6000803e3d6000fd5b505050506040513d6040811015611cb557600080fd5b506020015190506001600160a01b0381163314611d19576040805162461bcd60e51b815260206004820152601760248201527f63616c6c6572206973206e6f7420746865206f776e6572000000000000000000604482015290519081900360640190fd5b7f79a23f77451563d737c2d12dba4995c66f9c63fe6703e1b843d634ed3529c12d8383604051808060200180602001838103835285818151815260200191508051906020019080838360005b83811015611d7d578181015183820152602001611d65565b50505050905090810190601f168015611daa5780820380516001836020036101000a031916815260200191505b50838103825284518152845160209182019186019080838360005b83811015611ddd578181015183820152602001611dc5565b50505050905090810190601f168015611e0a5780820380516001836020036101000a031916815260200191505b5094505050505060405180910390a1505050565b611e26612549565b6001600160a01b0316611e376123ff565b6001600160a01b031614611e92576040805162461bcd60e51b815260206004820181905260248201527f4f776e61626c653a2063616c6c6572206973206e6f7420746865206f776e6572604482015290519081900360640190fd5b6001600160a01b03811660009081526001602052604090205460ff16611f2a576001600160a01b03811660008181526001602081815260409283902080547fffffffffffffffffffffffffffffffffffffffffffffffffffffffffffffff0016909217909155815192835290517f5b6a420b639feabfb011a07742a6ae14ef72f35d1a330ed65f42216c95bc6c2e9281900390910190a15b50565b611f35612549565b6001600160a01b0316611f466123ff565b6001600160a01b031614611fa1576040805162461bcd60e51b815260206004820181905260248201527f4f776e61626c653a2063616c6c6572206973206e6f7420746865206f776e6572604482015290519081900360640190fd5b600080546040516001600160a01b03909116907f8be0079c531659141344cd1fd0a4f28419497f9722a3daafe3b4186f6b6457e0908390a3600080547fffffffffffffffffffffffff0000000000000000000000000000000000000000169055565b61200b612549565b6001600160a01b031661201c6123ff565b6001600160a01b031614612077576040805162461bcd60e51b815260206004820181905260248201527f4f776e61626c653a2063616c6c6572206973206e6f7420746865206f776e6572604482015290519081900360640190fd5b6001600160a01b03811660009081526001602052604090205460ff1615611f2a576001600160a01b03811660008181526001602090815260409182902080547fffffffffffffffffffffffffffffffffffffffffffffffffffffffffffffff00169055815192835290517fa5f3b7626fd86ff989f1d22cf3d41d74591ea6eb99241079400b0c332a9a8f119281900390910190a150565b6002546001600160a01b031681565b6003546040517f82b7b5000000000000000000000000000000000000000000000000000000000081526020600482018181528451602484015284516000946001600160a01b0316936382b7b500938793928392604401918501908083838b5b8381101561219457818101518382015260200161217c565b50505050905090810190601f1680156121c15780820380516001836020036101000a031916815260200191505b5092505050604080518083038186803b1580156121dd57600080fd5b505afa1580156121f1573d6000803e3d6000fd5b505050506040513d604081101561220757600080fd5b506020015190506001600160a01b038116331461226b576040805162461bcd60e51b815260206004820152601760248201527f63616c6c6572206973206e6f7420746865206f776e6572000000000000000000604482015290519081900360640190fd5b600354604080517f092b25e9000000000000000000000000000000000000000000000000000000008152600060248201819052600482019283528551604483015285516001600160a01b039094169363092b25e993879390918291606401906020860190808383885b838110156122ec5781810151838201526020016122d4565b50505050905090810190601f1680156123195780820380516001836020036101000a031916815260200191505b509350505050600060405180830381600087803b15801561233957600080fd5b505af115801561234d573d6000803e3d6000fd5b505050507f33f0e5ba8079ed962d5166bdb2180f83068317c73732f76dc437da45bb69ac1182826040518080602001836001600160a01b03168152602001828103825284818151815260200191508051906020019080838360005b838110156123c05781810151838201526020016123a8565b50505050905090810190601f1680156123ed5780820380516001836020036101000a031916815260200191505b50935050505060405180910390a15050565b6000546001600160a01b031690565b612416612549565b6001600160a01b03166124276123ff565b6001600160a01b031614612482576040805162461bcd60e51b815260206004820181905260248201527f4f776e61626c653a2063616c6c6572206973206e6f7420746865206f776e6572604482015290519081900360640190fd5b6001600160a01b0381166124c75760405162461bcd60e51b815260040180806020018281038252602681526020018061294d6026913960400191505060405180910390fd5b600080546040516001600160a01b03808516939216917f8be0079c531659141344cd1fd0a4f28419497f9722a3daafe3b4186f6b6457e091a3600080547fffffffffffffffffffffffff0000000000000000000000000000000000000000166001600160a01b0392909216919091179055565b6004546001600160a01b031681565b3390565b60008163ffffffff166005846040518082805190602001908083835b602083106125885780518252601f199092019160209182019101612569565b51815160209384036101000a7fffffffffffffffffffffffffffffffffffffffffffffffffffffffffffffffff018019909216911617905292019485525060405193849003019092205463ffffffff169290921091506125ec9050575060006126a3565b816005846040518082805190602001908083835b6020831061261f5780518252601f199092019160209182019101612600565b51815160209384036101000a7fffffffffffffffffffffffffffffffffffffffffffffffffffffffffffffffff0180199092169116179052920194855250604051938490030190922080547fffffffffffffffffffffffffffffffffffffffffffffffffffffffff000000001663ffffffff94909416939093179092555060019150505b92915050565b6020810151604082015160608301516000929190831a601b8110156126cc57601b015b8060ff16601b141580156126e457508060ff16601c14155b156126f557600093505050506126a3565b60018682858560405160008152602001604052604051808581526020018460ff1681526020018381526020018281526020019450505050506020604051602081039080840390855afa15801561274f573d6000803e3d6000fd5b5050604051601f190151979650505050505050565b60048054604080517f70a082310000000000000000000000000000000000000000000000000000000081523093810193909352516000926001600160a01b03909216916370a08231916024808301926020929190829003018186803b1580156127cc57600080fd5b505afa1580156127e0573d6000803e3d6000fd5b505050506040513d60208110156127f657600080fd5b50519050808211156128a75760048054604080517fa9059cbb0000000000000000000000000000000000000000000000000000000081526001600160a01b0387811694820194909452602481018590529051929091169163a9059cbb916044808201926020929091908290030181600087803b15801561287557600080fd5b505af1158015612889573d6000803e3d6000fd5b505050506040513d602081101561289f57600080fd5b506129479050565b60048054604080517fa9059cbb0000000000000000000000000000000000000000000000000000000081526001600160a01b0387811694820194909452602481018690529051929091169163a9059cbb916044808201926020929091908290030181600087803b15801561291a57600080fd5b505af115801561292e573d6000803e3d6000fd5b505050506040513d602081101561294457600080fd5b50505b50505056fe4f776e61626c653a206e6577206f776e657220697320746865207a65726f2061646472657373a264697066735822122090c6328b9ffdc566078a237f2bbf4cfb0e4be9d32b276ff27e78d108849dd68964736f6c63430007030033",
  "linkReferences": {},
  "deployedLinkReferences": {}
}