{
  "_format": "hh-sol-artifact-1",
  "contractName": "Registration",
  "sourceName": "contracts/Registration.sol",
  "abi": [
    {
      "anonymous": false,
      "inputs": [
        {
          "indexed": false,
          "internalType": "address",
          "name": "account",
          "type": "address"
        }
      ],
      "name": "OperatorGranted",
      "type": "event"
    },
    {
      "anonymous": false,
      "inputs": [
        {
          "indexed": false,
          "internalType": "address",
          "name": "account",
          "type": "address"
        }
      ],
      "name": "OperatorRevoked",
      "type": "event"
    },
    {
      "anonymous": false,
      "inputs": [
        {
          "indexed": true,
          "internalType": "address",
          "name": "previousOwner",
          "type": "address"
        },
        {
          "indexed": true,
          "internalType": "address",
          "name": "newOwner",
          "type": "address"
        }
      ],
      "name": "OwnershipTransferred",
      "type": "event"
    },
    {
      "inputs": [
        {
          "internalType": "string",
          "name": "",
          "type": "string"
        }
      ],
      "name": "factory",
      "outputs": [
        {
          "internalType": "address",
          "name": "addr",
          "type": "address"
        },
        {
          "internalType": "address",
          "name": "owner",
          "type": "address"
        }
      ],
      "stateMutability": "view",
      "type": "function"
    },
    {
      "inputs": [
        {
          "internalType": "string",
          "name": "imei",
          "type": "string"
        }
      ],
      "name": "find",
      "outputs": [
        {
          "internalType": "address",
          "name": "",
          "type": "address"
        },
        {
          "internalType": "address",
          "name": "",
          "type": "address"
        }
      ],
      "stateMutability": "view",
      "type": "function"
    },
    {
      "inputs": [
        {
          "internalType": "address",
          "name": "_account",
          "type": "address"
        }
      ],
      "name": "grant",
      "outputs": [],
      "stateMutability": "nonpayable",
      "type": "function"
    },
    {
      "inputs": [
        {
          "internalType": "address",
          "name": "",
          "type": "address"
        }
      ],
      "name": "operators",
      "outputs": [
        {
          "internalType": "bool",
          "name": "",
          "type": "bool"
        }
      ],
      "stateMutability": "view",
      "type": "function"
    },
    {
      "inputs": [],
      "name": "owner",
      "outputs": [
        {
          "internalType": "address",
          "name": "",
          "type": "address"
        }
      ],
      "stateMutability": "view",
      "type": "function"
    },
    {
      "inputs": [],
      "name": "renounceOwnership",
      "outputs": [],
      "stateMutability": "nonpayable",
      "type": "function"
    },
    {
      "inputs": [
        {
          "internalType": "address",
          "name": "_account",
          "type": "address"
        }
      ],
      "name": "revoke",
      "outputs": [],
      "stateMutability": "nonpayable",
      "type": "function"
    },
    {
      "inputs": [
        {
          "internalType": "string",
          "name": "imei",
          "type": "string"
        },
        {
          "internalType": "address",
          "name": "owner",
          "type": "address"
        }
      ],
      "name": "setOwner",
      "outputs": [],
      "stateMutability": "nonpayable",
      "type": "function"
    },
    {
      "inputs": [
        {
          "internalType": "string[]",
          "name": "imeis",
          "type": "string[]"
        },
        {
          "internalType": "address[]",
          "name": "addrs",
          "type": "address[]"
        }
      ],
      "name": "ship",
      "outputs": [],
      "stateMutability": "nonpayable",
      "type": "function"
    },
    {
      "inputs": [
        {
          "internalType": "address",
          "name": "newOwner",
          "type": "address"
        }
      ],
      "name": "transferOwnership",
      "outputs": [],
      "stateMutability": "nonpayable",
      "type": "function"
    }
  ],
  "bytecode": "0x608060405234801561001057600080fd5b50600061001b61006a565b600080546001600160a01b0319166001600160a01b0383169081178255604051929350917f8be0079c531659141344cd1fd0a4f28419497f9722a3daafe3b4186f6b6457e0908290a35061006e565b3390565b610ef58061007d6000396000f3fe608060405234801561001057600080fd5b50600436106100be5760003560e01c806374a8f1031161007657806382b7b5001161005b57806382b7b500146101635780638da5cb5b14610176578063f2fde38b1461018b576100be565b806374a8f1031461013d5780637a7a0aeb14610150576100be565b806367914b79116100a757806367914b791461010157806370284d1914610122578063715018a614610135576100be565b8063092b25e9146100c357806313e7c9d8146100d8575b600080fd5b6100d66100d1366004610c37565b61019e565b005b6100eb6100e6366004610b2a565b6102e2565b6040516100f89190610d04565b60405180910390f35b61011461010f366004610bfc565b6102f7565b6040516100f8929190610cdd565b6100d6610130366004610b2a565b610335565b6100d6610461565b6100d661014b366004610b2a565b610543565b6100d661015e366004610b4b565b61065f565b610114610171366004610bfc565b61081f565b61017e61089a565b6040516100f89190610cbc565b6100d6610199366004610b2a565b6108b6565b3360009081526001602052604090205460ff166101f0576040517f08c379a00000000000000000000000000000000000000000000000000000000081526004016101e790610d6c565b60405180910390fd5b600073ffffffffffffffffffffffffffffffffffffffff166002836040516102189190610c83565b9081526040519081900360200190205473ffffffffffffffffffffffffffffffffffffffff161415610276576040517f08c379a00000000000000000000000000000000000000000000000000000000081526004016101e790610e11565b806002836040516102879190610c83565b908152604051908190036020019020600101805473ffffffffffffffffffffffffffffffffffffffff929092167fffffffffffffffffffffffff00000000000000000000000000000000000000009092169190911790555050565b60016020526000908152604090205460ff1681565b80516020818301810180516002825292820191909301209152805460019091015473ffffffffffffffffffffffffffffffffffffffff918216911682565b61033d610a03565b73ffffffffffffffffffffffffffffffffffffffff1661035b61089a565b73ffffffffffffffffffffffffffffffffffffffff16146103a8576040517f08c379a00000000000000000000000000000000000000000000000000000000081526004016101e790610e48565b73ffffffffffffffffffffffffffffffffffffffff811660009081526001602052604090205460ff1661045e5773ffffffffffffffffffffffffffffffffffffffff811660009081526001602081905260409182902080547fffffffffffffffffffffffffffffffffffffffffffffffffffffffffffffff00169091179055517f5b6a420b639feabfb011a07742a6ae14ef72f35d1a330ed65f42216c95bc6c2e90610455908390610cbc565b60405180910390a15b50565b610469610a03565b73ffffffffffffffffffffffffffffffffffffffff1661048761089a565b73ffffffffffffffffffffffffffffffffffffffff16146104d4576040517f08c379a00000000000000000000000000000000000000000000000000000000081526004016101e790610e48565b6000805460405173ffffffffffffffffffffffffffffffffffffffff909116907f8be0079c531659141344cd1fd0a4f28419497f9722a3daafe3b4186f6b6457e0908390a3600080547fffffffffffffffffffffffff0000000000000000000000000000000000000000169055565b61054b610a03565b73ffffffffffffffffffffffffffffffffffffffff1661056961089a565b73ffffffffffffffffffffffffffffffffffffffff16146105b6576040517f08c379a00000000000000000000000000000000000000000000000000000000081526004016101e790610e48565b73ffffffffffffffffffffffffffffffffffffffff811660009081526001602052604090205460ff161561045e5773ffffffffffffffffffffffffffffffffffffffff81166000908152600160205260409081902080547fffffffffffffffffffffffffffffffffffffffffffffffffffffffffffffff00169055517fa5f3b7626fd86ff989f1d22cf3d41d74591ea6eb99241079400b0c332a9a8f1190610455908390610cbc565b3360009081526001602052604090205460ff166106a8576040517f08c379a00000000000000000000000000000000000000000000000000000000081526004016101e790610d6c565b80518251146106e3576040517f08c379a00000000000000000000000000000000000000000000000000000000081526004016101e790610dda565b60005b825181101561081a57600073ffffffffffffffffffffffffffffffffffffffff16600284838151811061071557fe5b602002602001015160405161072a9190610c83565b9081526040519081900360200190205473ffffffffffffffffffffffffffffffffffffffff1614610787576040517f08c379a00000000000000000000000000000000000000000000000000000000081526004016101e790610da3565b81818151811061079357fe5b602002602001015160028483815181106107a957fe5b60200260200101516040516107be9190610c83565b908152604051908190036020019020805473ffffffffffffffffffffffffffffffffffffffff929092167fffffffffffffffffffffffff00000000000000000000000000000000000000009092169190911790556001016106e6565b505050565b6000806002836040516108329190610c83565b9081526040519081900360200181205473ffffffffffffffffffffffffffffffffffffffff1690600290610867908690610c83565b9081526040519081900360200190206001015490925073ffffffffffffffffffffffffffffffffffffffff169050915091565b60005473ffffffffffffffffffffffffffffffffffffffff1690565b6108be610a03565b73ffffffffffffffffffffffffffffffffffffffff166108dc61089a565b73ffffffffffffffffffffffffffffffffffffffff1614610929576040517f08c379a00000000000000000000000000000000000000000000000000000000081526004016101e790610e48565b73ffffffffffffffffffffffffffffffffffffffff8116610976576040517f08c379a00000000000000000000000000000000000000000000000000000000081526004016101e790610d0f565b6000805460405173ffffffffffffffffffffffffffffffffffffffff808516939216917f8be0079c531659141344cd1fd0a4f28419497f9722a3daafe3b4186f6b6457e091a3600080547fffffffffffffffffffffffff00000000000000000000000000000000000000001673ffffffffffffffffffffffffffffffffffffffff92909216919091179055565b3390565b803573ffffffffffffffffffffffffffffffffffffffff81168114610a2b57600080fd5b919050565b600082601f830112610a40578081fd5b8135610a53610a4e82610ea1565b610e7d565b818152915060208083019084810181840286018201871015610a7457600080fd5b60005b84811015610a9a57610a8882610a07565b84529282019290820190600101610a77565b505050505092915050565b600082601f830112610ab5578081fd5b813567ffffffffffffffff811115610ac957fe5b610afa60207fffffffffffffffffffffffffffffffffffffffffffffffffffffffffffffffe0601f84011601610e7d565b9150808252836020828501011115610b1157600080fd5b8060208401602084013760009082016020015292915050565b600060208284031215610b3b578081fd5b610b4482610a07565b9392505050565b60008060408385031215610b5d578081fd5b823567ffffffffffffffff80821115610b74578283fd5b818501915085601f830112610b87578283fd5b8135610b95610a4e82610ea1565b81815260208082019190858101875b85811015610bcd57610bbb8c8484358b0101610aa5565b85529382019390820190600101610ba4565b50919750880135945050505080821115610be5578283fd5b50610bf285828601610a30565b9150509250929050565b600060208284031215610c0d578081fd5b813567ffffffffffffffff811115610c23578182fd5b610c2f84828501610aa5565b949350505050565b60008060408385031215610c49578182fd5b823567ffffffffffffffff811115610c5f578283fd5b610c6b85828601610aa5565b925050610c7a60208401610a07565b90509250929050565b60008251815b81811015610ca35760208186018101518583015201610c89565b81811115610cb15782828501525b509190910192915050565b73ffffffffffffffffffffffffffffffffffffffff91909116815260200190565b73ffffffffffffffffffffffffffffffffffffffff92831681529116602082015260400190565b901515815260200190565b60208082526026908201527f4f776e61626c653a206e6577206f776e657220697320746865207a65726f206160408201527f6464726573730000000000000000000000000000000000000000000000000000606082015260800190565b6020808252601a908201527f63616c6c6572206973206e6f7420746865206f70657261746f72000000000000604082015260600190565b60208082526016908201527f64657669636520616c7265616479207368697070656400000000000000000000604082015260600190565b60208082526015908201527f6172726179206c656e677468206d69736d617463680000000000000000000000604082015260600190565b6020808252600c908201527f696e76616c696420696d65690000000000000000000000000000000000000000604082015260600190565b6020808252818101527f4f776e61626c653a2063616c6c6572206973206e6f7420746865206f776e6572604082015260600190565b60405181810167ffffffffffffffff81118282101715610e9957fe5b604052919050565b600067ffffffffffffffff821115610eb557fe5b506020908102019056fea264697066735822122056dc81555274177375053dea606ac7c4f802e1c426efc89e8de209a4b31b5bb164736f6c63430007030033",
  "linkReferences": {},
  "deployedLinkReferences": {}
}