{
  "_format": "hh-sol-artifact-1",
  "contractName": "Shipper",
  "sourceName": "contracts/Shipper.sol",
  "abi": [
    {
      "inputs": [
        {
          "internalType": "address",
          "name": "_registration",
          "type": "address"
        }
      ],
      "stateMutability": "nonpayable",
      "type": "constructor"
    },
    {
      "inputs": [],
      "name": "registration",
      "outputs": [
        {
          "internalType": "contract IRegistration",
          "name": "",
          "type": "address"
        }
      ],
      "stateMutability": "view",
      "type": "function"
    },
    {
      "inputs": [
        {
          "internalType": "string[]",
          "name": "imeis",
          "type": "string[]"
        },
        {
          "internalType": "address[]",
          "name": "addrs",
          "type": "address[]"
        }
      ],
      "name": "ship",
      "outputs": [],
      "stateMutability": "nonpayable",
      "type": "function"
    }
  ],
  "bytecode": "0x608060405234801561001057600080fd5b5060405161052238038061052283398101604081905261002f91610054565b600080546001600160a01b0319166001600160a01b0392909216919091179055610082565b600060208284031215610065578081fd5b81516001600160a01b038116811461007b578182fd5b9392505050565b610491806100916000396000f3fe608060405234801561001057600080fd5b50600436106100365760003560e01c8063443bd1d01461003b5780637a7a0aeb14610059575b600080fd5b61004361006e565b60405161005091906103f8565b60405180910390f35b61006c6100673660046101a9565b61008a565b005b60005473ffffffffffffffffffffffffffffffffffffffff1681565b6000546040517f7a7a0aeb00000000000000000000000000000000000000000000000000000000815273ffffffffffffffffffffffffffffffffffffffff90911690637a7a0aeb906100e29085908590600401610311565b600060405180830381600087803b1580156100fc57600080fd5b505af1158015610110573d6000803e3d6000fd5b505050505050565b600082601f830112610128578081fd5b813561013b6101368261043d565b610419565b81815291506020808301908481018184028601820187101561015c57600080fd5b6000805b8581101561019d57823573ffffffffffffffffffffffffffffffffffffffff8116811461018b578283fd5b85529383019391830191600101610160565b50505050505092915050565b60008060408084860312156101bc578283fd5b833567ffffffffffffffff808211156101d3578485fd5b818601915086601f8301126101e6578485fd5b81356101f46101368261043d565b81815260208082019190858101895b8581101561029157813588018d603f82011261021d578b8cfd5b838101358881111561022b57fe5b61025b857fffffffffffffffffffffffffffffffffffffffffffffffffffffffffffffffe0601f84011601610419565b8181528f8c83850101111561026e578d8efd5b818c84018783013790810185018d90528652509382019390820190600101610203565b509198508901359550505050808311156102a9578384fd5b50506102b785828601610118565b9150509250929050565b6000815180845260208085019450808401835b8381101561030657815173ffffffffffffffffffffffffffffffffffffffff16875295820195908201906001016102d4565b509495945050505050565b60006040820160408352808551808352606085019150602092506060838202860101838801855b838110156103d9577fffffffffffffffffffffffffffffffffffffffffffffffffffffffffffffffa088840301855281518051808552885b8181101561038b578281018901518682018a01528801610370565b8181111561039b57898983880101525b5095870195601f017fffffffffffffffffffffffffffffffffffffffffffffffffffffffffffffffe016939093018601925090850190600101610338565b5050858103848701526103ec81886102c1565b98975050505050505050565b73ffffffffffffffffffffffffffffffffffffffff91909116815260200190565b60405181810167ffffffffffffffff8111828210171561043557fe5b604052919050565b600067ffffffffffffffff82111561045157fe5b506020908102019056fea2646970667358221220ff5eba14caaad9cacef81234bd99c5850c485d8bd8122b608a95c245d18d15e364736f6c63430007030033",
  "linkReferences": {},
  "deployedLinkReferences": {}
}